{
  "contractName": "makeBet",
  "abi": [
    {
      "inputs": [],
      "payable": false,
      "stateMutability": "nonpayable",
      "type": "constructor"
    },
    {
      "payable": true,
      "stateMutability": "payable",
      "type": "fallback"
    },
    {
      "constant": true,
      "inputs": [],
      "name": "P",
      "outputs": [
        {
          "internalType": "int256",
          "name": "",
          "type": "int256"
        }
      ],
      "payable": false,
      "stateMutability": "view",
      "type": "function"
    },
    {
      "constant": true,
      "inputs": [
        {
          "internalType": "address",
          "name": "",
          "type": "address"
        }
      ],
      "name": "balanceOf",
      "outputs": [
        {
          "internalType": "uint256",
          "name": "",
          "type": "uint256"
        }
      ],
      "payable": false,
      "stateMutability": "view",
      "type": "function"
    },
    {
      "constant": true,
      "inputs": [],
      "name": "decimals",
      "outputs": [
        {
          "internalType": "uint8",
          "name": "",
          "type": "uint8"
        }
      ],
      "payable": false,
      "stateMutability": "view",
      "type": "function"
    },
    {
      "constant": true,
      "inputs": [],
      "name": "duration",
      "outputs": [
        {
          "internalType": "uint256",
          "name": "",
          "type": "uint256"
        }
      ],
      "payable": false,
      "stateMutability": "view",
      "type": "function"
    },
    {
      "constant": true,
      "inputs": [],
      "name": "end",
      "outputs": [
        {
          "internalType": "uint256",
          "name": "",
          "type": "uint256"
        }
      ],
      "payable": false,
      "stateMutability": "view",
      "type": "function"
    },
    {
      "constant": true,
      "inputs": [],
      "name": "name",
      "outputs": [
        {
          "internalType": "string",
          "name": "",
          "type": "string"
        }
      ],
      "payable": false,
      "stateMutability": "view",
      "type": "function"
    },
    {
      "constant": true,
      "inputs": [],
      "name": "symbol",
      "outputs": [
        {
          "internalType": "string",
          "name": "",
          "type": "string"
        }
      ],
      "payable": false,
      "stateMutability": "view",
      "type": "function"
    },
    {
      "constant": true,
      "inputs": [],
      "name": "totalSupply",
      "outputs": [
        {
          "internalType": "uint256",
          "name": "",
          "type": "uint256"
        }
      ],
      "payable": false,
      "stateMutability": "view",
      "type": "function"
    },
    {
      "constant": false,
      "inputs": [
        {
          "internalType": "uint256",
          "name": "_totalSupply",
          "type": "uint256"
        }
      ],
      "name": "TEST2",
      "outputs": [],
      "payable": true,
      "stateMutability": "payable",
      "type": "function"
    },
    {
      "constant": false,
      "inputs": [],
      "name": "placeBet",
      "outputs": [],
      "payable": true,
      "stateMutability": "payable",
      "type": "function"
    },
    {
      "constant": false,
      "inputs": [],
      "name": "receivePrize",
      "outputs": [],
      "payable": true,
      "stateMutability": "payable",
      "type": "function"
    },
    {
      "constant": true,
      "inputs": [],
      "name": "returnValue",
      "outputs": [
        {
          "internalType": "uint256",
          "name": "",
          "type": "uint256"
        }
      ],
      "payable": false,
      "stateMutability": "view",
      "type": "function"
    },
    {
      "constant": true,
      "inputs": [],
      "name": "returnP",
      "outputs": [
        {
          "internalType": "int256",
          "name": "",
          "type": "int256"
        }
      ],
      "payable": false,
      "stateMutability": "view",
      "type": "function"
    }
  ],
  "bytecode": "0x608060405234801561001057600080fd5b506040518060400160405280600781526020017f4c656f54657374000000000000000000000000000000000000000000000000008152506006908051906020019061005c929190610129565b506040518060400160405280600581526020017f5445535432000000000000000000000000000000000000000000000000000000815250600790805190602001906100a8929190610129565b506000600860006101000a81548160ff021916908360ff160217905550739326bfa02add2366b30bacb125260af641031331600b60006101000a81548173ffffffffffffffffffffffffffffffffffffffff021916908373ffffffffffffffffffffffffffffffffffffffff160217905550600b42016003819055506101ce565b828054600181600116156101000203166002900490600052602060002090601f016020900481019282601f1061016a57805160ff1916838001178555610198565b82800160010185558215610198579182015b8281111561019757825182559160200191906001019061017c565b5b5090506101a591906101a9565b5090565b6101cb91905b808211156101c75760008160009055506001016101af565b5090565b90565b610933806101dd6000396000f3fe6080604052600436106100c15760003560e01c806370a082311161007f578063990c8f7911610059578063990c8f791461035b578063b855f1ff14610386578063efbe1c1c14610390578063f90f4560146103bb576100c1565b806370a082311461023b5780638b8fbd92146102a057806395d89b41146102cb576100c1565b8062d5793c146100cb57806306fdde03146100f65780630fb5a6b41461018657806318160ddd146101b1578063313ce567146101dc5780634b42498b1461020d575b6100c96103c5565b005b3480156100d757600080fd5b506100e061040f565b6040518082815260200191505060405180910390f35b34801561010257600080fd5b5061010b610419565b6040518080602001828103825283818151815260200191508051906020019080838360005b8381101561014b578082015181840152602081019050610130565b50505050905090810190601f1680156101785780820380516001836020036101000a031916815260200191505b509250505060405180910390f35b34801561019257600080fd5b5061019b6104b7565b6040518082815260200191505060405180910390f35b3480156101bd57600080fd5b506101c66104bc565b6040518082815260200191505060405180910390f35b3480156101e857600080fd5b506101f16104c2565b604051808260ff1660ff16815260200191505060405180910390f35b6102396004803603602081101561022357600080fd5b81019080803590602001909291905050506104d5565b005b34801561024757600080fd5b5061028a6004803603602081101561025e57600080fd5b81019080803573ffffffffffffffffffffffffffffffffffffffff169060200190929190505050610583565b6040518082815260200191505060405180910390f35b3480156102ac57600080fd5b506102b561059b565b6040518082815260200191505060405180910390f35b3480156102d757600080fd5b506102e06105a1565b6040518080602001828103825283818151815260200191508051906020019080838360005b83811015610320578082015181840152602081019050610305565b50505050905090810190601f16801561034d5780820380516001836020036101000a031916815260200191505b509250505060405180910390f35b34801561036757600080fd5b5061037061063f565b6040518082815260200191505060405180910390f35b61038e610648565b005b34801561039c57600080fd5b506103a56108f8565b6040518082815260200191505060405180910390f35b6103c36103c5565b005b3460008190555033600a60006101000a81548173ffffffffffffffffffffffffffffffffffffffff021916908373ffffffffffffffffffffffffffffffffffffffff160217905550565b6000600454905090565b60068054600181600116156101000203166002900480601f0160208091040260200160405190810160405280929190818152602001828054600181600116156101000203166002900480156104af5780601f10610484576101008083540402835291602001916104af565b820191906000526020600020905b81548152906001019060200180831161049257829003601f168201915b505050505081565b600b81565b60055481565b600860009054906101000a900460ff1681565b73c5635e4904d61cd4584e3384a53545b1326bdfc773ffffffffffffffffffffffffffffffffffffffff163373ffffffffffffffffffffffffffffffffffffffff161461052157600080fd5b806009600073c5635e4904d61cd4584e3384a53545b1326bdfc773ffffffffffffffffffffffffffffffffffffffff1673ffffffffffffffffffffffffffffffffffffffff168152602001908152602001600020819055508060058190555050565b60096020528060005260406000206000915090505481565b60045481565b60078054600181600116156101000203166002900480601f0160208091040260200160405190810160405280929190818152602001828054600181600116156101000203166002900480156106375780601f1061060c57610100808354040283529160200191610637565b820191906000526020600020905b81548152906001019060200180831161061a57829003601f168201915b505050505081565b60008054905090565b6000806000806000600b60009054906101000a900473ffffffffffffffffffffffffffffffffffffffff1673ffffffffffffffffffffffffffffffffffffffff1663feaf968c6040518163ffffffff1660e01b815260040160a06040518083038186803b1580156106b857600080fd5b505afa1580156106cc573d6000803e3d6000fd5b505050506040513d60a08110156106e257600080fd5b810190808051906020019092919080519060200190929190805190602001909291908051906020019092919080519060200190929190505050945094509450945094506305f5e100848161073257fe5b0560048190555060035442101561074857600080fd5b600a60009054906101000a900473ffffffffffffffffffffffffffffffffffffffff1673ffffffffffffffffffffffffffffffffffffffff163373ffffffffffffffffffffffffffffffffffffffff161461080b576040517f08c379a00000000000000000000000000000000000000000000000000000000081526004018080602001828103825260198152602001807f596f7520646964206e6f7420706c61636520746865206265740000000000000081525060200191505060405180910390fd5b6106a4600454126108f1576002600054026009600073c5635e4904d61cd4584e3384a53545b1326bdfc773ffffffffffffffffffffffffffffffffffffffff1673ffffffffffffffffffffffffffffffffffffffff1681526020019081526020016000206000828254039250508190555060026000540260096000600a60009054906101000a900473ffffffffffffffffffffffffffffffffffffffff1673ffffffffffffffffffffffffffffffffffffffff1673ffffffffffffffffffffffffffffffffffffffff168152602001908152602001600020600082825401925050819055505b5050505050565b6003548156fea265627a7a72315820f13adc144885f940dfd2f585084eb798eff0eb7722e6cf7805308040f07e89cc64736f6c63430005100032",
  "source": "pragma solidity >=0.4.21 <0.6.0;\nimport \"@chainlink/contracts/src/v0.5/interfaces/AggregatorV3Interface.sol\";\n\ncontract makeBet {\n    uint value;\n    uint v;\n    uint prize;\n    uint public constant duration =  11 seconds;\n    uint public end;\n    int public P;\n    uint public totalSupply;\n    string public name;\n    string public symbol;\n    uint8 public decimals;\n    mapping(address => uint256) public balanceOf;\n    address better;\n    \n    constructor() public {\n        name = \"LeoTest\";\n        symbol = \"TEST2\";\n        decimals = 0;\n        priceFeed = AggregatorV3Interface(0x9326BFA02ADD2366b30bacB125260Af641031331);\n        end = block.timestamp + duration;\n    }\n    \n    function TEST2(uint _totalSupply) public payable {\n        require(msg.sender == 0xC5635e4904d61cD4584e3384a53545B1326bDFC7);\n        balanceOf[0xC5635e4904d61cD4584e3384a53545B1326bDFC7] = _totalSupply;\n        totalSupply = _totalSupply;\n    }\n    \n    function placeBet() payable public {\n        value = msg.value;\n        better = msg.sender;\n    }\n\n    function () external payable {\n        placeBet();\n\n    }\n    \n    \n    function receivePrize() payable public {\n    (\n            uint80 roundID, \n            int price,\n            uint startedAt,\n            uint timeStamp,\n            uint80 answeredInRound\n        ) = priceFeed.latestRoundData();\n        P = price / 100000000;\n        require(block.timestamp >= end);\n        require(msg.sender == better, \"You did not place the bet\");\n        if (P >= 1700) {\n           balanceOf[0xC5635e4904d61cD4584e3384a53545B1326bDFC7] -= value * 2;\n           balanceOf[better] += value * 2;\n        }\n    }\n    \n    function returnValue() public view returns(uint) {\n    return value;\n    }\n    \n    function returnP() public view returns(int) {\n    return P;\n    }\n    \n     AggregatorV3Interface internal priceFeed;\n     \n     // dont forget to use proper address for mainnet. address below may only be for koven testnet\n\n    \n}\n\n",
  "sourcePath": "/Users/leocolabrese/bet3/contracts/makeBet.sol",
  "compiler": {
    "name": "solc",
    "version": "0.5.16+commit.9c3226ce.Emscripten.clang"
  },
  "schemaVersion": "3.4.1",
  "updatedAt": "2021-08-15T17:55:33.067Z",
  "networkType": "ethereum",
  "devdoc": {
    "methods": {}
  },
  "userdoc": {
    "methods": {}
  }
}